:020000040000FA
:060000000A128A11FC2F18
:100D00000A128A119C260A128A11831603131114DF
:100D100008000A128A119C260A128A1183160313EC
:100D2000111508000A128A119C260A128A117008ED
:100D30008312031393000800831603131419A12EC2
:100D4000A22E9C2E11081F39031DA72EA82E9C2E03
:100D5000080083160317880189018316031386018F
:100D6000880183120313860188010030A30001303B
:100D7000A2008630A100A030A0000A128A11F1263C
:100D80000A128A1108000A128A119C260A128A1174
:100D90008316031391150A128A119C260A128A11CE
:100DA000831203131308F200F3017208F4007308AE
:100DB000F5000A128A119C260A128A117003710426
:100DC000031DE32EE42EE82E831603139112EB2E5F
:100DD00083160313911611167508F1007408F000BC
:100DE0000800283083120313940083160313910123
:100DF000831203132008A4002108A5002208A600DE
:100E00002308A70002300310A40DA50DA60DA70D01
:100E1000FF3E031D032F2708F3002608F2002508D4
:100E2000F1002408F0000030F7007A30F6001230AC
:100E3000F5000030F4000A128A1129270A128A11DB
:100E40007008FF3E8316031393009401871507165D
:100E500008000030FC000030FB000030FA000030D9
:100E6000F90073087204710470040319382F392FC4
:100E7000862FFD01FD0A492F0130F8000310F00D07
:100E8000F10DF20DF30DF80B3E2F0130F80078084C
:100E9000FD07F31F4C2F4D2F3C2F0130F80003109E
:100EA000F90DFA0DFB0DFC0DF80B4F2F73087702AF
:100EB000031D642F72087602031D642F71087502EA
:100EC000031D642F70087402031C672F682F772F8F
:100ED0007008F4027108031C710FF5027208031CFC
:100EE000720FF6027308031C730FF70279140130B6
:100EF0000310F30CF20CF10CF00CFF3E031D782FE5
:100F00000130FD02031D852F862F4D2F7C08F30035
:100F10007B08F2007A08F1007908F00008000A1254
:100F20008A11A9260A128A110A128A1180260A1227
:100F30008A115030F0000030F1000A128A11922616
:100F40000A128A11831203130608A800A9012808AF
:100F5000F0002908F1000A128A1192260A128A1159
:100F60000A128A1189260A128A1103308312031386
:100F7000AA000830A9007630A800A80BBD2FA90B45
:100F8000BD2FAA0BBD2F00000A128A1180260A125B
:100F90008A115130F0000030F1000A128A119226B5
:100FA0000A128A110030F000F1000A128A11C326D9
:100FB0000A128A1170088312031388000A128A1118
:100FC00089260A128A11033083120313AA000830FB
:100FD000A9007630A800A80BEB2FA90BEB2FAA0BCA
:100FE000EB2F0000013083120313A80028088607A6
:100FF000942F0A128A11002883010A128A118F2F56
:04400E00D6E0FFFFFA
:00000001FF
