:020000040000FA
:060000000A128A110C280F
:10000800FE00030EF1000A08F2000A128A111528F0
:100018000A128A110F28F801F90183010A128A11BC
:100028007828831203138C1D1A281B287128141290
:10003800141B1F2820282428941F232824282B2811
:100048001308F0007008F90014139413141683169B
:100058000313941A302831284D28141934283528C8
:100068004D28831203131308F0007008F9008C114F
:10007800141683160313141C422843283D288312A0
:10008800031313088800A630F000F00B492800007D
:100098006E28941A502851286E28141D5428552863
:1000A8006E28831203131308F0007008F9008316F2
:1000B8000313141083120313060893001416A630B2
:1000C800F000F00B652800008316031314186D2840
:1000D8006E286828831203138C1172088A00710E27
:1000E8008300FE0E7E0E09000A128A11AA200A1247
:1000F8008A118312031386090630F7001330F600BD
:10010800AD30F500F50B8628F60B8628F70B862808
:100118008D287D280A128A110C2873088316031368
:100128009300363083120313940080308316031330
:10013800940001309100871507168B170B1783124F
:1001480003138C11831603138C15080083160317E9
:10015800880189018316031386018801831203131A
:10016800860188015030F3000030F4000A128A1129
:0801780091200A128A1108000F
:04400E00D6E0FFFFFA
:00000001FF
