:020000040000FA
:060000000A128A11FC2F18
:100EF400F000700883120313930008008316031391
:100F0400141C852F862F802F08000A128A1180272F
:100F14000A128A118312031313080800F3008316BC
:100F240003138712731D972F982F9C2F7208940018
:100F34008715A02F70087204940087117308710438
:100F44008312031394000800831603178801890190
:100F54008316031307118601880183120313860184
:100F640088010715F001F101F20120300A128A11FB
:100F740090270A128A118312031307110330F50014
:100F84009730F400F40BC42FF50BC42FC92F831230
:100F9400031306080A128A117A270A128A110A12FE
:100FA4008A1187270A128A118312031388000330D7
:100FB400F5009730F400F40BDD2FF50BDD2FE22F55
:100FC4008312031307150330F6008A30F5005530F9
:100FD400F400F40BEB2FF50BEB2FF60BEB2FF22FAA
:100FE4000130F4007408831203138607BD2F0A121C
:0C0FF4008A11002883010A128A11A62F1E
:04400E00D6E0FFFFFA
:00000001FF
