:020000040000FA
:060000000A128A110C280F
:10000800FE00030EF1000A08F2000A128A111328F2
:100018000A128A110F2883010A128A114E288312A4
:1000280003138C1D182819282A280A128A117E20E1
:100038000A128A1183120313880006080A128A1109
:100048008E200A128A11831203138C1172088A00F7
:10005800710E8300FE0E7E0E0900831603178801B9
:10006800890183160313860188018312031386010D
:1000780088018B170B178C11831603138C158516A3
:10008800F301F401F50124300A128A1168200A12DA
:100098008A1108000A128A1131200A128A110130C5
:1000A8008312031386020330F9008A30F8005530B2
:1000B800F700F70B5D28F80B5D28F90B5D2864281D
:1000C80053280A128A110C28F60083160313871284
:1000D800761D6F287028742875089400871578286D
:1000E8007308750494008711760874048312031347
:1000F800940008000A128A1187200A128A118312B2
:1001080003131308080083160313141C8C288D2866
:1001180087280800F0007008831203139300080072
:04400E00D6E0FFFFFA
:00000001FF
