:020000040000FA
:100000000A128A11FC2F00308A000408840A820731
:1000100000347734773477342E3465346C34653477
:100020006334743472346F3453346F346D346534E4
:100030002E3463346F346D3400344C3443344434E0
:1000400020344C346934623472346134723479341B
:10005000203466346F34723400344434653476347A
:1000600065346C346F347034653464342034423415
:100070007934003465346C346534633474347234E8
:100080006F3453346F346D34653400344D34503430
:100090004C344134423420345834433438340034FE
:100B3E0000300A128A11C6250A128A1101300A12D1
:100B4E008A11C6250A128A11080001300A128A116A
:100B5E00C6250A128A1108300A128A11C6250A12EF
:100B6E008A11080001300A128A11C6250A128A114A
:100B7E000C300A128A11C6250A128A110800F300D7
:100B8E0083120313081173080A128A11E0250A1240
:100B9E008A118312031388150B30F2006230F100B4
:100BAE00F10BD72DF20BD72D0000831203138811F2
:100BBE000800F000701CE42DE52DE92D83120313BF
:100BCE000816EC2D831203130812F01CEF2DF02DD6
:100BDE00F22D8816F32D8812701DF62DF72DF92D96
:100BEE000817FA2D0813F01DFD2DFE2D002E881767
:100BFE00012E88130800F700F501F601192E75086D
:100C0E00770784000A128A1103200A128A110A1227
:100C1E008A1127260A128A110130F5070318F60ADF
:100C2E000030F6077508770784000A128A11032030
:100C3E000A128A11003A031D252E262E062E0800B2
:100C4E00F40074080F39F1007108F2007408F039DD
:100C5E00F1007108F3008312031308157308F100F5
:100C6E0004300310F10CFF3E031D382E71080A12DA
:100C7E008A11E0250A128A118312031388151A307D
:100C8E00F100F10B482E0000831203138811720835
:100C9E000A128A11E0250A128A118312031388158B
:100CAE001A30F100F10B592E000083120313881134
:100CBE000800F7007703031D652E662E892E740833
:100CCE007F3EF5007508FA007A08F500043003102F
:100CDE00F50CFF3E031D6E2E7508F6007608F80023
:100CEE007A080F39F5007508F90078080A128A118A
:100CFE00C6250A128A1179080A128A11C6250A1205
:100D0E008A11B12E02307706031D8E2E8F2EB12E34
:100D1E007408BF3EF5007508FA007A08F500043035
:100D2E000310F50CFF3E031D972E7508F60076088E
:100D3E00F8007A080F39F5007508F90078080A12DC
:100D4E008A11C6250A128A1179080A128A11C62535
:100D5E000A128A11080000300A128A11E0250A12BE
:100D6E008A113430F500F130F400F40BBC2EF50B83
:100D7E00BC2EC12E03300A128A11C6250A128A1100
:100D8E000D30F500FB30F400F40BCB2EF50BCB2E13
:100D9E00D02E03300A128A11C6250A128A111D306E
:100DAE00F5009130F400F40BDA2EF50BDA2E033049
:100DBE000A128A11C6250A128A1102300A128A11E3
:100DCE00C6250A128A1102300A128A11C6250A1283
:100DDE008A1108300A128A11C6250A128A110030A9
:100DEE000A128A11C6250A128A110C300A128A11A9
:100DFE00C6250A128A1100300A128A11C6250A1255
:100E0E008A1106300A128A11C6250A128A110800A2
:100E1E008316031388010A128A11B2260A128A1146
:100E2E000A128A119F250A128A11F401F40A01305E
:100E3E000A128A1160260A128A1115300A128A11B4
:100E4E0002260A128A11F401F40A02300A128A11D9
:100E5E0060260A128A113E300A128A1102260A12DE
:100E6E008A111530FD004B30FC00BE30FB00FB0B31
:100E7E003E2FFC0B3E2FFD0B3E2F00000A128A1157
:100E8E009F250A128A11F401F40A01300A128A11FE
:100E9E0060260A128A1125300A128A1102260A12B7
:100EAE008A11F401F40A02300A128A1160260A121B
:100EBE008A1132300A128A1102260A128A1115304C
:100ECE00FD004B30FC00BE30FB00FB0B6C2FFC0B0F
:100EDE006C2FFD0B6C2F00000A128A119F250A122F
:100EEE008A11F401F40A01300A128A1160260A12DC
:100EFE008A1101300A128A1102260A128A118312ED
:100F0E000313A001A1010430FD000C30FC003330AE
:100F1E00FB00FB0B902FFC0B902FFD0B902F972FB0
:100F2E000A128A11AC250A128A1101308312031398
:100F3E00A0070318A10A0030A107003021020F30CC
:100F4E0003192002031CAC2FAD2F8A2FA001A10183
:100F5E000430FD000C30FC003330FB00FB0BB52FD2
:100F6E00FC0BB52FFD0BB52FBC2F0A128A11B9251C
:100F7E000A128A11013083120313A0070318A10A63
:100F8E000030A107003021020F3003192002031C8C
:100F9E00D12FD22FAF2F0A128A119F250A128A1132
:100FAE00F401F40A02300A128A1160260A128A111A
:100FBE0065300A128A1127260A128A1153300A1234
:100FCE008A1127260A128A111530FD004B30FC00BB
:100FDE00BE30FB00FB0BF12FFC0BF12FFD0BF12FA5
:100FEE000000172F0A128A11002883010A128A1193
:020FFE000F2FB3
:04400E00D6E0FFFFFA
:00000001FF
