:020000040000FA
:060000000A128A110C280F
:10000800FE00030EF0000A08F1000A128A116128A6
:100018000A128A110F28F401F50183010A128A11C4
:100028003C28F2002F28831603130F128F120F1388
:100038003A28831603130F168F120F133A288316C4
:1000480003130F168F160F173A28831603130F1270
:100058008F160F173A287208003A03191728013A21
:1000680003191D28063A0319232829280F14080004
:1000780007300A128A1115200A128A110A128A11E7
:1000880082200A128A110A128A1177200A128A110A
:1000980003307502E83003197402031C54285528EC
:1000A8004C280130F3007308831203138607F40108
:1000B800F5014C280A128A110C280B1D64286528A2
:1000C80070280B1104308312031381000130F407E8
:1000D8000318F50A0030F50771088A00700E8300CE
:1000E800FE0E7E0E09008130831603138100043052
:1000F800831203138100A0308B00080083160313BA
:100108008601831603178801890183120313860168
:020118000800DD
:04400E00D4E0FFFFFC
:00000001FF
