:020000040000FA
:060000000A128A110C280F
:10000800FE00030EF0000A08F1000A128A1169289E
:100018000A128A110F28F601F70183010A128A11C0
:100028004428F4002F28831603130F128F120F137E
:100038004228831603130F168F120F1342288316B4
:1000480003130F168F160F174228831603130F1268
:100058008F160F1742287408F200F3017308003A4C
:100068000319372829287208003A03191728013A72
:1000780003191D28063A0319232829280F140800F4
:1000880007300A128A1115200A128A110A128A11D7
:100098008A200A128A110A128A117F200A128A11EA
:1000A80003307702E83003197602031C5C285D28C8
:1000B80054280130F5007508831203138607F601EA
:1000C800F70154280A128A110C280B1D6C286D2878
:1000D80078280B1104308312031381000130F607CE
:1000E8000318F70A0030F70771088A00700E8300BA
:1000F800FE0E7E0E09008130831603138100043042
:10010800831203138100A0308B00080083160313A9
:100118008601831603178801890183120313860158
:020128000800CD
:04400E00D4E0FFFFFC
:00000001FF
