:020000040000FA
:060000000A128A110C280F
:10000800FE00030EF0000A08F1000A128A113428D3
:100018000A128A110F28F301F40183010A128A11C6
:1000280015280A128A1155200A128A110A128A11F1
:100038004A200A128A1103307402E8300319730245
:10004800031C272828281F280130F2007208831271
:1000580003138507F301F4011F280A128A110C28DB
:100068000B1D3728382843280B110430831203133B
:1000780081000130F3070318F40A0030F40771080F
:100088008A00700E8300FE0E7E0E090081308316F2
:10009800031381000430831203138100A0308B0006
:1000A8000800831603138501831603178801890145
:0800B800831203138501080007
:04400E00D6E0FFFFFA
:00000001FF
