:020000040000FA
:060000000A128A11FC2F18
:100EE800F00070088312031393000800831603139D
:100EF800141C7F2F802F7A2F08000A128A117A2754
:100F08000A128A118312031313080800F3008316C8
:100F180003138712731D912F922F962F7208940036
:100F280087159A2F7008720494008711730871044A
:100F3800831203139400080083160317880189019C
:100F48008316031307118601880183120313860190
:100F580088010715F001F101F20120300A128A1107
:100F68008A270A128A1108000A128A11A0270A126F
:100F78008A118312031307110330F5009730F40028
:100F8800F40BC42FF50BC42FC92F831203130608C3
:100F98000A128A1174270A128A110A128A118127E1
:100FA8000A128A118312031388000330F500973060
:100FB800F400F40BDD2FF50BDD2FE22F8312031362
:100FC80007150330F6008A30F5005530F400F40BAD
:100FD800EB2FF50BEB2FF60BEB2FF22F0130F40074
:100FE8007408831203138607BD2F0A128A1100287A
:080FF80083010A128A11B82FCF
:04400E00D6E0FFFFFA
:00000001FF
